:020000040800F2
:100000000004002001020008810C0008810C000897
:10001000810C0008810C0008810C0008810C00088C
:10002000810C0008810C0008810C000821170008D1
:10003000810C0008810C0008810C0008311F0008A9
:10004000810C0008810C0008810C0008810C00085C
:10005000810C0008810C0008810C0008810C00084C
:10006000810C0008810C0008810C0008511B00085D
:10007000811B0008B11B0008E11B0008111C0008CF
:10008000411C0008711C000851200008810C000868
:10009000810C0008810C0008810C0008810C00080C
:1000A000810C000831290008810C00085129000842
:1000B00071290008810C0008112A0008F1240008A9
:1000C000F1250008810C0008810C0008810C000853
:1000D000810C0008A12B0008C12B0008E12B0008AF
:1000E000810C0008810C0008810C0008810C0008BC
:1000F000810C0008810C0008810C0008A11C00087C
:10010000810C0008810C0008810C0008810C00089B
:10011000012C0008810C0008810C0008810C0008EB
:10012000D11C0008011D0008311D0008611D0008D8
:10013000911D0008810C0008810C0008810C00084A
:10014000810C0008810C0008810C0008810C00085B
:10015000C11D0008F11D0008211E0008212C000807
:10016000810C0008810C0008810C0008810C00083B
:10017000810C0008810C0008810C0008810C00082B
:10018000810C0008810C0008810C0008810C00081B
:10019000810C0008810C0008810C0008810C00080B
:1001A000810C0008810C0008810C0008810C0008FB
:1001B000810C0008810C0008810C0008810C0008EB
:1001C000000000000000000000000000000000002F
:1001D000000000000000000000000000000000001F
:1001E000000000000000000000000000000000000F
:1001F00000000000000000000000000000000000FF
:1002000072B6224880F30988022080F31488BFF375
:100210006F8F00F0F5FC02F0E3FD1D481D491E4AFA
:1002200091423CBF41F8040BFAE71C49174A91423E
:100230003CBF41F8040BFAE719491A4A1A4B9A4293
:100240003EBF51F8040B42F8040BF8E700201749B1
:10025000174A91423CBF41F8040BFAE700F0E8FC72
:1002600000F0D6FC134C144DAC4203DA54F8041BD6
:100270008847F9E703F04CFD104C114DAC4203DA0E
:1002800054F8041B8847F9E700F0CABC00080020B6
:1002900055555555000000200004002000040020A2
:1002A000905C0008000800201C08002020080020A6
:1002B000E418002000020008000200080002000804
:1002C0000002000800000000000000000000000024
:1002D0002DE9F04FC1F80CD0C3689D46BDE8F08F02
:1002E000002383F311882846A047002000F080FFF8
:1002F00000F0CEFE00DFFEE700000000000000007E
:1003000081F0004102E000BF83F0004330B54FEAC6
:1003100041044FEA430594EA050F08BF90EA020F33
:100320001FBF54EA000C55EA020C7FEA645C7FEAC6
:10033000655C00F0E2804FEA5454D4EB5555B8BFE9
:100340006D420CDD2C4480EA020281EA030382EA5A
:10035000000083EA010180EA020281EA0303362DEC
:1003600088BF30BD11F0004F4FEA01314FF4801CBF
:100370004CEA113102D0404261EB410113F0004FD1
:100380004FEA03334CEA133302D0524263EB430388
:1003900094EA050F00F0A780A4F10104D5F1200E26
:1003A0000DDB02FA0EFC22FA05F2801841F1000181
:1003B00003FA0EF2801843FA05F359410EE0A5F155
:1003C00020050EF1200E012A03FA0EFC28BF4CF086
:1003D000020C43FA05F3C01851EBE37101F000453C
:1003E00007D54FF0000EDCF1000C7EEB00006EEB49
:1003F0000101B1F5801F1BD3B1F5001F0CD34908D3
:100400005FEA30004FEA3C0C04F101044FEA445229
:1004100012F5800F80F09A80BCF1004F08BF5FEAB0
:10042000500C50F1000041EB045141EA050130BD90
:100430005FEA4C0C404141EB010111F4801FA4F133
:100440000104E9D191F0000F04BF01460020B1FA88
:1004500081F308BF2033A3F10B03B3F120020CDAC0
:100460000C3208DD02F1140CC2F10C0201FA0CF09E
:1004700021FA02F10CE002F11402D8BFC2F1200C03
:1004800001FA02F120FA0CFCDCBF41EA0C019040B9
:10049000E41AA2BF01EB0451294330BD6FEA040402
:1004A0001F3C1CDA0C340EDC04F11404C4F12002ED
:1004B00020FA04F001FA02F340EA030021FA04F3FF
:1004C00045EA030130BDC4F10C04C4F1200220FA56
:1004D00002F001FA04F340EA0300294630BD21FA94
:1004E00004F0294630BD94F0000F83F4801306BF5A
:1004F00081F480110134013D4EE77FEA645C18BF4E
:100500007FEA655C29D094EA050F08BF90EA020FE4
:1005100005D054EA000C04BF1946104630BD91EADC
:10052000030F1EBF0021002030BD5FEA545C05D1DF
:100530004000494128BF41F0004130BD14F580041E
:100540003CBF01F5801130BD01F0004545F0FE4192
:1005500041F470014FF0000030BD7FEA645C1ABFC7
:10056000194610467FEA655C1CBF0B46024650EAFE
:10057000013406BF52EA033591EA030F41F400212A
:1005800030BD00BF90F0000F04BF0021704730B5B0
:100590004FF4806404F132044FF000054FF0000185
:1005A00050E700BF90F0000F04BF0021704730B546
:1005B0004FF4806404F1320410F0004548BF40421B
:1005C0004FF000013EE700BF42004FEAE2014FEA70
:1005D00031014FEA02701FBF12F07F4393F07F4F4B
:1005E00081F06051704792F0000F14BF93F07F4F7D
:1005F000704730B54FF4607401F0004521F00041C0
:1006000020E700BF50EA010208BF704730B54FF045
:1006100000050AE050EA010208BF704730B511F04A
:10062000004502D5404261EB41014FF4806404F182
:1006300032045FEA915C3FF4DCAE4FF003025FEA04
:10064000DC0C18BF03325FEADC0C18BF033202EB8C
:10065000DC02C2F1200300FA03FC20FA02F001FAE6
:1006600003FE40EA0E0021FA02F11444C1E600BF85
:1006700070B54FF0FF0C4CF4E06C1CEA11541DBF38
:100680001CEA135594EA0C0F95EA0C0F00F0DEF803
:100690002C4481EA030621EA4C5123EA4C5350EAE8
:1006A000013518BF52EA033541F4801143F4801339
:1006B00038D0A0FB02CE4FF00005E1FB02E506F0CA
:1006C0000042E0FB03E54FF00006E1FB03569CF01F
:1006D000000F18BF4EF0010EA4F1FF04B6F5007F25
:1006E00064F5407404D25FEA4E0E6D4146EB060697
:1006F00042EAC62141EA55514FEAC52040EA5E5020
:100700004FEACE2EB4F1FD0C88BFBCF5E06F1ED8C9
:10071000BEF1004F08BF5FEA500E50F1000041EB00
:10072000045170BD06F0004646EA010140EA0200AD
:1007300081EA0301B4EB5C04C2BFD4EB0C0541EACF
:10074000045170BD41F480114FF0000E013C00F3E4
:10075000AB8014F1360FDEBF002001F0004170BD08
:10076000C4F10004203C35DA0C341BDC04F1140421
:10077000C4F1200500FA05F320FA04F001FA05F2AD
:1007800040EA020001F0004221F0004110EBD3707A
:1007900021FA04F642EB06015EEA430E08BF20EAA6
:1007A000D37070BDC4F10C04C4F1200500FA04F349
:1007B00020FA05F001FA04F240EA020001F00041DB
:1007C00010EBD37041F100015EEA430E08BF20EA4E
:1007D000D37070BDC4F1200500FA05F24EEA020E96
:1007E00020FA04F301FA05F243EA020321FA04F0C5
:1007F00001F0004121FA04F220EA020000EBD3707C
:100800005EEA430E08BF20EAD37070BD94F0000F7B
:100810000FD101F00046400041EB010111F4801FAF
:1008200008BF013CF7D041EA060195F0000F18BF60
:10083000704703F00046520043EB030313F4801F9C
:1008400008BF013DF7D043EA0603704794EA0C0F56
:100850000CEA135518BF95EA0C0F0CD050EA41066C
:1008600018BF52EA4306D1D181EA030101F00041E9
:100870004FF0000070BD50EA410606BF1046194611
:1008800052EA430619D094EA0C0F02D150EA01361D
:1008900013D195EA0C0F05D152EA03361CBF10465E
:1008A00019460AD181EA030101F0004141F0FE41FD
:1008B00041F470014FF0000070BD41F0FE4141F481
:1008C000780170BD70B54FF0FF0C4CF4E06C1CEA81
:1008D00011541DBF1CEA135594EA0C0F95EA0C0F36
:1008E00000F0A7F8A4EB050481EA030E52EA0335F1
:1008F0004FEA013100F088804FEA03334FF0805512
:1009000045EA131343EA12634FEA022245EA11153E
:1009100045EA10654FEA00260EF000419D4208BFEF
:10092000964244F1FD0404F5407402D25B084FEA9C
:100930003202B61A65EB03055B084FEA32024FF448
:1009400080104FF4002CB6EB020E75EB030E22BFA5
:10095000B61A754640EA0C005B084FEA3202B6EB65
:10096000020E75EB030E22BFB61A754640EA5C0014
:100970005B084FEA3202B6EB020E75EB030E22BFA4
:10098000B61A754640EA9C005B084FEA3202B6EBA5
:10099000020E75EB030E22BFB61A754640EADC0064
:1009A00055EA060E18D04FEA051545EA16754FEAC6
:1009B00006164FEAC30343EA52734FEAC2025FEAE4
:1009C0001C1CC0D111F4801F0BD141EA00014FF073
:1009D00000004FF0004CB6E711F4801F04BF014344
:1009E0000020B4F1FD0C88BFBCF5E06F3FF6AFAE60
:1009F000B5EB030C04BFB6EB020C5FEA500C50F1F0
:100A0000000041EB045170BD0EF0004E4EEA113172
:100A100014EB5C04C2BFD4EB0C0541EA045170BD79
:100A200041F480114FF0000E013C90E645EA060EBD
:100A30008DE60CEA135594EA0C0F08BF95EA0C0FEB
:100A40003FF43BAF94EA0C0F0AD150EA01347FF433
:100A500034AF95EA0C0F7FF425AF104619462CE70A
:100A600095EA0C0F06D152EA03353FF4FDAE10466D
:100A7000194622E750EA410618BF52EA43067FF4BE
:100A8000C5AE50EA41047FF40DAF52EA43057FF44E
:100A9000EBAE12E7000000000000000000000000C4
:100AA0004FF0FF3C06E000BF4FF0010C02E000BF3A
:100AB0004FF0010C4DF804CD4FEA410C7FEA6C5C1D
:100AC0004FEA430C18BF7FEA6C5C1BD001B050EAC0
:100AD000410C0CBF52EA430C91EA030F02BF90EAAB
:100AE000020F0020704710F1000F91EA030F58BF6A
:100AF000994208BF90422CBFD8176FEAE37040F0CC
:100B0000010070474FEA410C7FEA6C5C02D150EA69
:100B1000013C07D14FEA430C7FEA6C5CD6D152EA24
:100B2000033CD3D05DF8040B704700BF84461046E9
:100B300062468C461946634600E000BF01B5FFF7E8
:100B4000B7FF002848BF10F1000F01BD4DF808EDB8
:100B5000FFF7F4FF0CBF012000205DF808FB00BF89
:100B60004DF808EDFFF7EAFF34BF012000205DF8E3
:100B700008FB00BF4DF808EDFFF7E0FF94BF012030
:100B800000205DF808FB00BF4DF808EDFFF7CEFF31
:100B900094BF012000205DF808FB00BF4DF808ED70
:100BA000FFF7C4FF34BF012000205DF808FB00BF41
:100BB0004FEA410212F5001215D211D56FF4787385
:100BC000B3EB625212D94FEAC12343F0004343EA28
:100BD000505311F0004F23FA02F018BF4042704703
:100BE0004FF00000704750EA013005D111F000408D
:100BF00008BF6FF0004070474FF00000704700BF23
:100C0000704700BFAFF30080AFF30080AFF3008008
:100C1000704700BFAFF30080AFF30080AFF30080F8
:100C2000FEE700BFAFF30080AFF30080AFF30080BA
:100C3000F0B4114E002506F1800796E81A00A34291
:100C40000DD21A46043951F8040F42F8040BA2429F
:100C5000F9D3DA43144424F0030404342344F2683F
:100C6000934203D243F8045B9342FBD31036BE4257
:100C7000E3D3F0BC704700BF20570008AFF30080FB
:100C8000FEE700BFAFF30080AFF30080AFF300805A
:100C9000FEE700BFAFF30080AFF30080AFF300804A
:100CA0004FF6FF011E4B70B500249C60D8681D4AAA
:100CB00001400A431C48DA60C2681C4942F0807255
:100CC000C2600A68202042F00102194D10260A6015
:100CD00082B0DE7783F8220000F0E2F800F060F8DE
:100CE00000F0F6FA00F0D4FC00F00AFD284640219E
:100CF00000F0DEF9A5F1300301229861027784F358
:100D0000118862B60B499B6905F148009961D821A9
:100D10000094094B00F0F4F9084B836102B070BDF8
:100D200000ED00E00003FA05F0ED00E0001000E047
:100D300050080020B0570008910C0008A057000888
:100D400072B6014BD862FEE720080020AFF30080A6
:100D5000F8B5114DAA69D37F0BB1013BD377AA6ACD
:100D6000EB690E4E0132B342AA6213D09C68013C7B
:100D70009C607CB920271A68D968DC605660EA61FB
:100D800084F311881869884787F31188EB699A689A
:100D9000002AF0D0F8BD00BF200800203C08002049
:100DA000054B4FF0FF3003F11C020021586299629D
:100DB000DA611A62704700BF20080020AFF300809C
:100DC00010B40D4C0361E369C2609A68914204D982
:100DD0001B68891A9A688A42FAD35A68036042608B
:100DE0001060586081609A684FF0FF30511A996026
:100DF00060625DF8044B704720080020AFF300806C
:100E0000036830B482689C68416822449A600B6031
:100E10000568044B00244FF0FF326960C4605A62D9
:100E200030BC704720080020AFF30080AFF3008093
:100E300010B4202383F31188037F072B0ED8DFE83B
:100E400003F0270D0D2308040D08026A936801338F
:100E5000936090E80C001A60026853604FF0FF3412
:100E6000002281680D4B046202771B689A688A42EF
:100E7000FBD25A680021036042601060586081F321
:100E800011885DF8044B7047036A00221A60E5E799
:100E9000002383F311885DF8044B7047200800207D
:100EA000034B00221B605B601B615B619A607047B3
:100EB00020080020AFF30080AFF30080AFF3008084
:100EC00010B4044600228168074B02771B689A68B9
:100ED0008A42FBD25A6820462360626014605C60DC
:100EE0005DF8044B704700BF20080020AFF300807E
:100EF000084B70B41A68996914680A2601250877A6
:100F0000CE77636015771C60104670BC9A61FFF75E
:100F1000DFB900BF20080020AFF30080AFF30080EE
:100F200030B54B1C87B012D005460C4C01A8A36904
:100F30000B4AFFF745FF2846FFF7DAFF049B13B182
:100F400001A8FFF75DFFA369186A07B030BDFFF77E
:100F5000CFFF024CA369186A07B030BD20080020FB
:100F6000310E0008AFF30080AFF30080AFF30080D4
:100F7000144B70B49E69846805460162B06884426F
:100F80000CD800222A771B689A689442FBD95A68C9
:100F90002B606A6015605D6070BC70471A46002166
:100FA0003177126891688842FBD9506801247060DB
:100FB0003260066056602C77314628469D6170BCD1
:100FC000FFF786B920080020AFF30080AFF3008060
:100FD000084B9A691B68D17F9B68906821B983424E
:100FE00034BF002001207047834294BF00200120BD
:100FF000704700BF20080020AFF30080AFF30080EF
:10100000104AF0B51068946905684FF0010E0A2780
:101010000026A1682B466A60156080F81CE090618C
:10102000E777267700E01B689A688A42FBD25A6805
:1010300021462360626014605C60BDE8F040FFF709
:1010400047B900BF20080020AFF30080AFF3008055
:101050000D4AF0B410689469056801270026A1685C
:101060002B466A60156007779061267700E01B6861
:101070009A688A42FBD85A682146236062601460ED
:101080005C60F0BCFFF724B920080020AFF30080BB
:10109000034B9B69DB7F0BB1FFF7DABFFFF7B0BFF4
:1010A00020080020AFF30080AFF30080AFF3008092
:1010B0002DE9F041104C0022666900F128054FF03F
:1010C00002084FF00A0C4FF0010E00F124074661B0
:1010D00081600461C16380F81C8080F81FC080F8C3
:1010E0001EE04277826342638261306160614762E1
:1010F0008562C562BDE8F08120080020AFF3008062
:101100002DE9F84F96460446202282F311881B4EA3
:10111000A1F12405726947190A99DFF864B0C76024
:1011200000F1240C43514FF0020A002500F128037E
:101130004FF00A094FF001087960C7F820B029463E
:10114000C0F808E006614261C0F83CE080F81CA0ED
:1011500080F81F9080F81E80457785634563856120
:101160001061C0F824C08362C3627061FFF700FFA2
:1011700085F311882046BDE8F88F00BF20080020C5
:10118000E1020008AFF30080AFF30080AFF300800E
:1011900008B50146202383F311880820FFF7C0FE1D
:1011A000002383F3118808BDAFF30080AFF3008004
:1011B00038B50E4B9C69636A04F124059D42206298
:1011C00007D01A6818466262FFF77AFE636AAB427C
:1011D000F7D1637F9B0704D1226963691A61226991
:1011E00053610F20BDE83840FFF782BE2008002081
:1011F000202383F31188FFF7DBBF00BFAFF300802C
:1012000003682BB10022026018461962FFF758BE2E
:10121000704700BFAFF30080AFF30080AFF30080F2
:1012200069B10246074B10B49B694468042083E807
:101230001400236053605DF8044BFFF771BE4FF05C
:10124000FF30704720080020AFF30080AFF300802C
:1012500002680346904209D010B4146810461C601E
:10126000636011625DF8044BFFF72ABE704700BF50
:10127000014B5B6883607047001000E0AFF30080B3
:101280000E4B0F495A688368496FD31AC26830B44D
:10129000D0E904455B1A01324168E418C260026873
:1012A00045F100058B4288BF43609342C0E9044585
:1012B00030BC836038BF0360704700BF001000E09F
:1012C00020080020AFF30080AFF30080AFF3008070
:1012D000D0B50C4C86B000234FF0FF326846002694
:1012E000002763670193029303930092CDE904679B
:1012F000FFF7BEFF6846FFF7C3FF029B636706B0B8
:10130000D0BD00BF20080020AFF30080AFF3008005
:101310000023006040608360704700BFAFF300802F
:10132000436B027F19430A2A41630AD00B2A00D07B
:101330007047036A19408B42FAD100230362FFF71A
:10134000BFBD036A1942F8D1704700BFAFF30080F8
:1013500070B504680646A0420D460DD0E3682B43E5
:10136000E36015B12269134203D06068A168FFF7FA
:10137000D7FF2468A642F1D170BD00BFAFF3008053
:101380000E4B70B520229C6982F3118800F128056C
:10139000067F2562C26A0E2E21632560626014609A
:1013A000C46207D00C20FFF7A3FD206A002383F35B
:1013B000118870BDFFF784FDF4E700BF200800200E
:1013C00010B5202383F311880B4CA269134653F800
:1013D000280F984208D001680D2491624B600022CA
:1013E000047782F3118810BD0E20FFF781FDA269FA
:1013F000906A02F12803EEE720080020AFF3008096
:1014000008B5202383F31188FFF7B2FD002383F38F
:10141000118808BDAFF30080AFF30080AFF3008008
:1014200030B4029C00250A448560046202610060B9
:101430004060C16081614161C36130BC704700BFE1
:101440004369826910B5934210D082685C1C0132F6
:10145000826044611970426903699A4201D3C3688A
:1014600043610021FFF7F4FE002010BD8268002ACE
:10147000EBD06FF0030010BDAFF30080AFF300803E
:1014800070B520230E46044683F31188C3693BB12F
:10149000984705E020463146FFF7C2FE002813DBDF
:1014A000A568002DF6D0A169A36825694A1C013BF7
:1014B000AA42A36028BFE368A261087828BFA3619D
:1014C000002383F3118870BD85F3118870BD00BFC0
:1014D0002DE9F04F044683B0894693461D46D0F867
:1014E0001C80202787F311880026B2460197B8F1A7
:1014F000000F07D02046C04704E020462946FFF7EA
:101500008FFED0B9A768002FF7D0A269A368511C3D
:10151000013BA161A360137809F8013B2369A2692B
:101520009A4224BFE368A3618AF311880136B34568
:1015300005D0019B83F31188D9E787F311883046E2
:1015400003B0BDE8F08F00BFAFF30080AFF30080C1
:1015500030B4029C8D1805610462006040608260B6
:10156000C16081614161C36130BC7047AFF30080ED
:10157000F8B504460F461646202383F3118805E08C
:1015800020463146FFF74CFE002817DBA568002DEA
:10159000F6D06269A368511C013B6161A3601770BA
:1015A000236962699A4224BFE3686361E3690BB10E
:1015B00020469847002080F31188F8BD85F31188F4
:1015C000F8BD00BFAFF30080AFF30080AFF3008041
:1015D00038B5426983699A420FD082680569591CFF
:1015E000013282608161A9421C7801D3C3688361A2
:1015F0000021FFF72DFE204638BD8268002AECD07E
:101600006FF0020038BD00BFAFF30080AFF3008081
:101610002DE9F04F83B004468B4615460193C76908
:101620004FF0200888F311880026B146A3680BF11B
:10163000010AFBB16269A368501C013B6061A360B1
:101640009BF800301370236962699A4224BFE368F3
:1016500063610FB12046B84789F31188013D06F157
:10166000010611D088F31188D346A3680BF1010A53
:10167000002BDFD1204601990093FFF7D1FD009B9D
:101680000028D3D083F31188304603B0BDE8F08F33
:10169000054A064B0648074922F0070223F00703D4
:1016A00002600B60704700BFEF180020004001206F
:1016B0007409002070090020AFF30080AFF30080B0
:1016C00010B4202383F31188094C0A4B226819684F
:1016D000C31D23F00703891A8B429DBF9B1823600B
:1016E00010460020002383F311885DF8044B7047F7
:1016F0007409002070090020AFF30080AFF3008070
:10170000044B0549002203F1100019609A60DA6069
:10171000FFF7FEBD78090020C1160008AFF3008076
:10172000EFF30983203383F30988002383F31188BF
:10173000704700BFAFF30080AFF30080AFF30080CD
:10174000202383F311880F4B5B6813F4006302D1ED
:1017500083F31188704710B5EFF309844FF080735D
:1017600044F8043CA4F1200383F30988FFF730FC1C
:1017700018B1054B44F8083C10BD044B44F8083C34
:1017800010BD00BF00ED00E0F1020008F402000807
:1017900008B500F045F9094800F002FD00F018F81E
:1017A00000F03EF800F05CF800F06AF800F0B8F8DD
:1017B00001F01EFBBDE8084000F002B8D058000858
:1017C00000F0C6BBAFF30080AFF30080AFF3008042
:1017D00000F0CEBBAFF30080AFF30080AFF300802A
:1017E00000230122027043608360C3600361436190
:1017F0001830FFF78DBD00BFAFF30080AFF300805E
:1018000010B52023044683F31188416000F0D0FB1B
:1018100002232370002383F3118810BDAFF30080EF
:1018200000F056BFAFF30080AFF30080AFF300804D
:1018300001220023027043600C30FFF769BD00BF36
:1018400010B52023044683F31188416000F058FF4F
:1018500002232370002383F3118810BDAFF30080AF
:1018600001F006B8AFF30080AFF30080AFF3008063
:101870000122002302704360704700BFAFF3008075
:1018800001F086B8AFF30080AFF30080AFF30080C3
:101890000023012202704360C3600374704700BFDD
:1018A0000C30FFF715BE00BFAFF30080AFF3008030
:1018B0000C304FF0FF33FFF70BBE00BFAFF30080DB
:1018C0003030FFF7A5BE00BFAFF30080AFF300805C
:1018D00030304FF0FF33FFF79BBE00BFAFF3008007
:1018E0000C30FFF7CDBD00BFAFF30080AFF3008039
:1018F0000C304FF0FF31FFF7C3BD00BFAFF30080E6
:101900003030FFF735BE00BFAFF30080AFF300808B
:1019100030304FF0FF32FFF72BBE00BFAFF3008037
:1019200001F08EB9AFF30080AFF30080AFF3008019
:1019300030B5044615460B460C4983B040F8041BED
:101940000122009404F154016060227204F10C0041
:101950001022FFF765FD00942B4604F1300004F1DE
:1019600064011022FFF7F4FD03B030BDD05700082A
:1019700010B52023044683F3118801F0A9F902234E
:101980002372002383F3118810BD00BFAFF30080E2
:1019900038B5436904460D463BB1294604F10C00B5
:1019A000FFF74EFD00280BDB38BD04300421FFF7A4
:1019B000CFFC294604F10C00FFF742FD0028F3DAC2
:1019C000201D8021BDE83840FFF7C2BCAFF3008086
:1019D00043099B0010B4090100F1604403F1604326
:1019E00000F01F00012204F5614403F561438240C9
:1019F000C9B284F80013C3F880211A605DF8044B63
:101A0000704700BFAFF30080AFF30080AFF30080FA
:101A1000090100F16040C9B200F56D4001767047E0
:101A2000174B4FF0FF310022186910B419611A6189
:101A3000586959615A61186A124C60F080501862F6
:101A40001A62586A59625A62196C41F080511964DD
:101A5000216841F480712160196F01F44071B1F582
:101A6000007F03D04FF4803119671A67054A5DF88B
:101A7000044B536823F40073536000F0E9B900BFCE
:101A80000038024000700040AFF30080AFF30080E8
:101A9000284B294A194610B400204FF080541C648A
:101AA00010601A6842F001021A600B68214A9C0714
:101AB000FBD51146936823F003039360936893600A
:101AC0008B681C4A13F00C03FAD11146106800F021
:101AD000F90010609360536F43F0010353674B6F3D
:101AE000144A9807FBD51146144B5360136843F012
:101AF000807313600B680F4A9B01FBD51146104B96
:101B0000104C4FF4E06094601860936843F0020357
:101B100093608B68074A03F00C03082BF9D1536CD0
:101B20005DF8044B43F480435364536E43F48043A5
:101B3000536670470038024000700040103C0105B9
:101B4000003C024080B8883CAFF30080AFF30080D7
:101B500008B5074B074A196801F03D019960136801
:101B60000BB150689847BDE80840FFF7E9BD00BFDA
:101B70000060024098090020AFF30080AFF30080BE
:101B8000084B094819688268890901F03D0110B5C0
:101B90008C019C600AB1C0689047BDE81040FFF717
:101BA000CFBD00BF0060024098090020AFF3008065
:101BB000084B094819680269090C01F03D0110B58C
:101BC0000C049C600AB140699047BDE81040FFF7E3
:101BD000B7BD00BF0060024098090020AFF300804D
:101BE000084B094819688269890D01F03D0110B55B
:101BF0008C059C600AB1C0699047BDE81040FFF7B2
:101C00009FBD00BF0060024098090020AFF3008034
:101C100008B5074B07485968026A01F03D01D960D1
:101C20000AB1406A9047BDE80840FFF789BD00BF90
:101C30000060024098090020AFF30080AFF30080FD
:101C4000084B09485968826A890901F03D0110B5BD
:101C50008C01DC600AB1C06A9047BDE81040FFF714
:101C60006FBD00BF0060024098090020AFF3008004
:101C7000084B09485968026B090C01F03D0110B589
:101C80000C04DC600AB1406B9047BDE81040FFF7E0
:101C900057BD00BF0060024098090020AFF30080EC
:101CA000084B09485968826B890D01F03D0110B558
:101CB0008C05DC600AB1C06B9047BDE81040FFF7AF
:101CC0003FBD00BF0060024098090020AFF30080D4
:101CD00008B5074B07481968026C01F03D0199608F
:101CE0000AB1406C9047BDE80840FFF729BD00BF2E
:101CF0000064024098090020AFF30080AFF3008039
:101D0000084B09481968826C890901F03D0110B53A
:101D10008C019C600AB1C06C9047BDE81040FFF791
:101D20000FBD00BF0064024098090020AFF300809F
:101D3000084B09481968026D090C01F03D0110B506
:101D40000C049C600AB1406D9047BDE81040FFF75D
:101D5000F7BC00BF0064024098090020AFF3008088
:101D6000084B09481968826D890D01F03D0110B5D5
:101D70008C059C600AB1C06D9047BDE81040FFF72C
:101D8000DFBC00BF0064024098090020AFF3008070
:101D900008B5074B07485968026E01F03D01D9604C
:101DA0000AB1406E9047BDE80840FFF7C9BC00BFCC
:101DB0000064024098090020AFF30080AFF3008078
:101DC000084B09485968826E890901F03D0110B538
:101DD0008C01DC600AB1C06E9047BDE81040FFF78F
:101DE000AFBC00BF0064024098090020AFF3008040
:101DF000084B09485968026F090C01F03D0110B504
:101E00000C04DC600AB1406F9047BDE81040FFF75A
:101E100097BC00BF0064024098090020AFF3008027
:101E2000084B09485968826F890D01F03D0110B5D2
:101E30008C05DC600AB1C06F9047BDE81040FFF729
:101E40007FBC00BF0064024098090020AFF300800F
:101E5000002211461346104670B40B4E0B4D0C4C2D
:101E600032606A580C31106044F833000133102B93
:101E7000F7D10849084A4FF0FF338B6070BCCB6044
:101E80009360D360704700BF180A0020F057000825
:101E9000980900200060024000640240AFF3008017
:101EA000F8B51F4F467A01243D6804FA06FE1EEA83
:101EB000050F31D11B4C4EEA050515F0FF0F04EB61
:101EC000C60E3D6044F83620CEF8043004D0164CDF
:101ED000236B43F40013236315F47F4F16D1056879
:101EE0002B6823F01F032B602B6813F00104FBD138
:101EF000077A46683D23BB40212733602C606F6121
:101F000062B1807AFFF764FD2046F8BD064C236B72
:101F100043F480032363E2E72046F8BD1046F8BD92
:101F2000180A00209809002000380240AFF3008012
:101F300008B5202383F31188FEF70AFF002383F3FB
:101F40001188BDE80840FFF7FBBB00BFAFF300807E
:101F500040F6B730044B00210722586099600B20EF
:101F600008211A60FFF754BD10E000E0AFF30080D5
:101F700038B5084C084D2046FFF732FC074B084A9D
:101F8000A562E262236312200621BDE83840FFF714
:101F90001FBD00BF1C0A002000200140162C0200BB
:101FA00080580008AFF30080AFF30080AFF30080EB
:101FB0000378012B00D07047114B10B598420446AE
:101FC0000DD01048A26A4368002103F4400343F493
:101FD00080330124436051609160946010BD0621FC
:101FE000094A2346C06AFFF75BFFE36A07491B689B
:101FF000074A9960536C43F480735364E1E700BF70
:102000001C0A002000230140C12000084C20014090
:1020100000380240AFF30080AFF30080AFF30080E0
:10202000C16A0A68136823F01F031360136813F072
:102030000103FBD130B40D7A4C68826A3D21A9407E
:1020400001202160536030BC93609060704700BFF6
:1020500038B5164B00211A681960930622D5144C26
:10206000E36A1B685B68EBB12369DBB12046FFF7CD
:10207000D7FF23699B684BB10522227020460121BE
:1020800098472378052B04BF022323700025256180
:10209000202383F3118807484FF0FF31FFF7B0F892
:1020A00085F31188BDE83840FFF74ABB00200140A6
:1020B0001C0A0020300A0020AFF30080AFF300803C
:1020C00011F00C0F70B5044619D10369B3B18D0638
:1020D00012D51A78002A3DD05D687DB1C268012A08
:1020E00033D95B88520803FB02F3816801EB43019B
:1020F0002B46BDE870401847CA061DD470BDFFF7D7
:102100008FFF23699B684BB1052222702046002176
:1021100098472378052B04BF0223237000252561EF
:10212000202383F311884FF0FF3104F11400FFF7EF
:1021300067F885F3118870BD5B68002BDED0BDE8C1
:102140007040C2688168520818472B46BDE870404D
:1021500081681847FFF764FF23695B68A3B1042215
:1021600022702046A168E26898472378042B0BD0A0
:10217000202383F31188002104F11400FFF740F8B5
:10218000002383F3118870BD022200232270236193
:10219000EEE700BFAFF30080AFF30080AFF3008045
:1021A00040F2FF12644B2DE9F041196BDFF8A48176
:1021B00011431963196DDFF8A0E10A431A654368FA
:1021C0005E4EC8F8043083685D4DC8F80830C368B7
:1021D0005C4CC8F80C3003695B49C8F81430476997
:1021E0005A4AC8F820708369DFF870C1C8F82430F3
:1021F0000368574FC8F80030036ACEF80430436ACA
:10220000CEF80830836ACEF80C30C36ACEF81430AA
:10221000036BCEF82030436BCEF82430C369CEF880
:102220000030C36B7360036CB360436CF360836C0A
:102230007361C36C3362036D7362836B3360866D4D
:102240006E60C66DAE60066EEE60466E6E61866E46
:102250002E62C66E6E62466D2E60456F6560856F3C
:10226000A560C56FE560D0F880506561D0F88450F6
:102270002562D0F888506562056F2560D0F89040DF
:102280004C60D0F894408C60D0F89840CC60D0F886
:102290009C404C61D0F8A0400C62D0F8A4404C6245
:1022A000D0F88C400C60D0F8AC105160D0F8B01071
:1022B0009160D0F8B410D160D0F8B8105161D0F866
:1022C000BC101162D0F8C0105162D0F8A810116093
:1022D000D0F8C820CCF80420D0F8CC20CCF80820C6
:1022E000D0F8D020CCF80C20D0F8D420CCF8142092
:1022F000D0F8D820CCF82020D0F8DC20CCF824204E
:10230000D0F8C420CCF80020D0F8E4307B60D0F8BE
:10231000E830BB60D0F8EC30FB60D0F8F0307B6187
:10232000D0F8F4303B62D0F8F8307B62D0F8E0307F
:102330003B60BDE8F08100BF003802400008024069
:10234000000C02400010024000140240001802403D
:10235000002002400000024000040240001C024035
:102360002DE9F04FC2F3411C02F0030EC2F38009C5
:10237000C2F3C1080027C2F3C3124FF00F0B4FF096
:10238000010A0FE0046A24EA03031D4305624908B9
:102390003AD04FEA49094FEA88084FEA8C0C4FEAD5
:1023A0008E0E0137CB07F2D57B0003249C40E4431B
:1023B00043680AFA07F523EA050343EA0903436081
:1023C000856807F00703254045EA08058560C5686C
:1023D0009B00254045EA0C05BEF1020FC56002FADC
:1023E00003F50BFA03F311D00668072F04EA06047D
:1023F00044EA0E040460C5D9446A490824EA030388
:1024000045EA03054562C4D1BDE8F08F072F0AD81D
:10241000066A26EA03031D43056203681C4044F074
:1024200002040460B3E7466A26EA03031D434562DB
:10243000F3E700BFAFF30080AFF30080AFF300809D
:1024400011F00C0F38B50546446B12D1296B0A68A0
:10245000136823F01F0313601368DB07FCD4087AAA
:102460004A683D2383401360636843F400736360EC
:1024700038BD0248FEF764FCE8E700BFB05800082A
:1024800011F00C0F70B50646456B25D1F26A136842
:10249000196821F01F011960196811F00104FBD1BE
:1024A000117A3D2352688B4013606B68202223F41D
:1024B00080536B602B6823F480632B602B6843F49C
:1024C00000732B6082F3118806F11C002146FEF791
:1024D00097FE84F3118870BD0148FEF731FCD5E703
:1024E000B0580008AFF30080AFF30080AFF3008076
:1024F0003A4870B5446B3A4AA369656945EA0343B3
:1025000023F07F4393424CD01ED8073A93423CD0ED
:102510000132934210D16268C36A22F400721B68D0
:1025200062601A6842F001021A60626842F48052E6
:1025300062605B68012B4BD915F00A0F18BFA369C5
:10254000BDE87040FFF7FCB8264A934212D0023231
:102550009342F1D1C36A1B685E683EB32368028C64
:1025600043F4A06342F0010202842360BDE870409E
:10257000FFF7E6B86368026B23F4007312686360C8
:10258000136843F001031360D6E7038C1A0A0BD0DB
:1025900003F0010343F0F00302F00602134323614A
:1025A000CAE7038CC3F347032361C5E763682022AE
:1025B00023F400736360236843F40073236082F3A1
:1025C00011881C303146FEF71BFE86F31188B3E7F5
:1025D000236823F480632360AEE700BF500A002025
:1025E0000800030082000700AFF30080AFF3008013
:1025F0003448F8B5446B076B66693A68B1B201F4C8
:102600005F43DB436361136823F01F0313601368A8
:10261000DB07FCD43A7AC56A7F683D2393402A6879
:102620003B60136823F01F031360136813F001036A
:10263000FBD12F7A3D226D68BA40CF052A6043BF97
:1026400001221346826083608D0544BF43F002037C
:1026500083604A050AD5626843F0040322F40072DD
:102660006260226842F40072226083600F0544BFFA
:1026700043F0080383604D0444BF43F020038360AC
:10268000CC0413D543F010033104836016D4202307
:1026900083F311880C486FF00101FEF7B1FD0023B0
:1026A00083F31188BDE8F840FFF74AB8320405D437
:1026B000002BECD1BDE8F840FFF742B843F04003EF
:1026C0008360E4E7500A00206C0A0020AFF300802A
:1026D00010B5074C2046FFF7ABF8064B0649002023
:1026E00003F14802E0616163E362226310BD00BF51
:1026F000500A0020F057000800540040AFF300805B
:1027000040F2564140F21642F8B503780446012BD8
:1027100081624262456B3ED02B464FF6C076E16A3D
:10272000226BD1F800C0D2F800E005F110014FF49F
:1027300000474FF410600022CCF80810CEF80810C3
:102740002F602A606860596864680E406068277A64
:102750005E6059683F4E41F00301B04259604EDD62
:102760003D49884207DC022F68D0032F59D048F634
:10277000FF7201211962DA6121781A68022992B286
:1027800049D0032944D0012935D01A602B6843F081
:1027900001032B60F8BD314B9842BDD1304E002271
:1027A000336AC06A43F40013336205213262234660
:1027B0002C4AFFF775FB2C4A05212346206BFFF7B7
:1027C0006FFB336C1F2043F4001333640521FFF7C4
:1027D000FFF820200521FFF7FBF8626AA36A42F0A8
:1027E000007243F0007343F4403342F44032A3627A
:1027F0006262636B91E722F00A0292B2C5E71B495D
:10280000420091FBF2F20421C2F30B021962B2E71B
:1028100042F00A02B9E722F0080292B242F0020244
:10282000B3E700EB8002114902EB820291FBF2F266
:102830006FEA82426FEA924292B29AE70B4900EB4A
:10284000400291FBF2F26FEA42426FEA524292B2C8
:102850008FE700BFA0860100801A0600500A002002
:1028600000380240812400084124000870383900F3
:1028700038B5074D074C2846FEF7FAFF064B2046B1
:10288000EB60FEF7F5FF4FF08043E36038BD00BF1B
:10289000A00A0020880A002000000140AFF3008059
:1028A000C36870B51A69DC6841681440E2B2D2436B
:1028B0000D7D06461A61E5B965070AD50378042B34
:1028C00004D0A1070AD4E4070CD470BD8B683BB3D5
:1028D0009847A207F7D53378042B1AD00423E407CE
:1028E0003370F2D5736830461B6998470323337001
:1028F00070BDA30708D50378042B02D06307EDD47D
:10290000E1E78B687BB198476507DCD53378042B0A
:10291000E4D17168CB68002BE0D030469847DDE702
:10292000A007F7D4CFE76207F4D4CCE7AFF3008079
:1029300008B50348FFF7B4FFBDE80840FEF700BF45
:10294000A00A0020AFF30080AFF30080AFF3008057
:1029500008B50348FFF7A4FFBDE80840FEF7F0BE46
:10296000A00A0020AFF30080AFF30080AFF3008037
:1029700008B50348FFF794FFBDE80840FEF7E0BE46
:10298000880A0020AFF30080AFF30080AFF300802F
:1029900010B5044C2046FEF77BFF034B0422227443
:1029A000A36110BDB80A002000080040AFF300800A
:1029B000836970B51A69DC6805461440E2B2D243F7
:1029C000A6071A6103D543681B6903B198476007DE
:1029D00004D56B689B690BB128469847210704D53D
:1029E0006B681B6A0BB128469847E20604D56B68F2
:1029F0009B6A0BB128469847E30706D56B689B682E
:102A00001BB12846BDE87040184770BDAFF3008089
:102A100008B50348FFF7CCFFBDE80840FEF790BEBD
:102A2000B80A0020AFF30080AFF30080AFF300805E
:102A3000024AD36843F08003D3607047001001401E
:102A4000024AD36843F08003D360704700440040DB
:102A5000024AD36843F08003D360704700480040C7
:102A6000024AD36843F08003D3607047004C0040B3
:102A7000024AD36843F08003D360704700140140DA
:102A80002DE9F041456F0646D5F80C802B68DA0534
:102A90009CB251D4202383F3118814F02F0F2BD034
:102AA000371D07E0A00669681DD42C68A4B214F095
:102AB0002F0F21D02307F5D014F0080F0CBF0021F1
:102AC0008021E00748BF41F02001A20748BF41F044
:102AD0004001630748BF41F480713846FEF738FC77
:102AE000A0066968E1D5C9B23046FEF751FF2C68EF
:102AF000A4B214F02F0FDDD1002383F3118818F056
:102B0000800F01D0220626D4630613D5202383F339
:102B10001188B26C736C9A422BD04FF6BF736FF072
:102B2000400208EA0303EB6000232A6083F3118864
:102B3000BDE8F081BDE8F081202383F311884FF4D4
:102B400000710430FEF704FC6FF480732B600023E7
:102B500083F311889EE7202383F3118806F1300068
:102B6000FEF736FD00280CDB6860002383F3118834
:102B7000CAE7B36B002BD0D0301D1021FEF7E8FB65
:102B8000CBE7301D0821FEF7E3FB4FF63F7308EA61
:102B9000030343F04003EB60E7E700BFAFF30080BF
:102BA00008B50348FFF76CFFBDE80840FEF7C8BD55
:102BB000D40A0020AFF30080AFF30080AFF30080B1
:102BC00008B50348FFF75CFFBDE80840FEF7B8BD55
:102BD0004C0B0020AFF30080AFF30080AFF3008018
:102BE00008B50348FFF74CFFBDE80840FEF7A8BD55
:102BF000C40B0020AFF30080AFF30080AFF3008080
:102C000008B50348FFF73CFFBDE80840FEF798BD54
:102C10003C0C0020AFF30080AFF30080AFF30080E6
:102C200008B50348FFF72CFFBDE80840FEF788BD54
:102C3000B40C0020AFF30080AFF30080AFF300804E
:102C400070B5144D144C28460021144AFEF770FE4E
:102C5000134B20460021134A134E6B67FEF768FEA4
:102C6000124B30460021124A124D6367FEF760FE98
:102C7000114B28460021114A114C7367FEF758FE8C
:102C8000104B20460021104A6B67FEF751FE0F4B98
:102C9000636770BDD40A00204C0B0020312A000865
:102CA00000100140412A0008C40B002000440040ED
:102CB000512A00083C0C002000480040612A00080E
:102CC000B40C0020004C0040712A000800140140A0
:102CD00038B5394C037A002918BF0C46012B05463C
:102CE00022D06B6F354A934237D002F5806293420F
:102CF00033D02168324AB2FBF1F29A60A288E088B0
:102D0000218942F4045240F0400042F02C0241F08C
:102D1000010192B280B289B2002418615961DA606F
:102D20001C601A685B6838BD264B98422FD0264B32
:102D3000984218D0254B98421FD0254B984230D04E
:102D4000244B9842CDD1244A4720536C0C2143F0A8
:102D500020035364FEF73CFEC3E721681F4AB2FB21
:102D6000F1F29A60CAE71C4A2620136C0C2143F446
:102D700000331364FEF72CFEB3E7174A2720136CC9
:102D80000C2143F480231364FEF722FEA9E7124AC4
:102D90002520536C0C2143F010035364FEF718FEFA
:102DA0009FE70D4A3420136C0C2143F40023136475
:102DB000FEF70EFE95E700BFC05800080010014066
:102DC00070383900D40A00204C0B0020C40B0020BE
:102DD0003C0C0020B40C002000380240E07072006F
:102DE000FEF756BEAFF30080AFF30080AFF3008074
:102DF000704700BFAFF30080AFF30080AFF30080F7
:102E00002DE9F84F844C042120464022FFF7A8FA10
:102E1000204608214022FFF7A3FA20461021402235
:102E2000FFF79EFA204620214022FFF799FA402121
:102E300020460A46FFF794FA0121784F20460A46B9
:102E4000FFF78EFA204602210122FFF789FA384661
:102E50004FF480710122FFF783FA38464FF4007176
:102E6000012291468A46FFF77BFA4FF48073DFF820
:102E7000B8814FF0020B6A4EA4F81A905146A4F89C
:102E80001AB040467B8340F28232A7F81AA0FFF7BF
:102E900067FA40464FF4806140F28232FFF760FAF1
:102EA0003046202140F28232FFF75AFA3046402164
:102EB00040F282325B4DFFF753FA30464FF4807197
:102EC0004022FFF74DFA304651464A46FFF748FA8E
:102ED00028464FF4806140F20242FFF741FA28464B
:102EE0004FF4006140F20242FFF73AFA28464021CF
:102EF00040F20242FFF734FA2846802140F20242B3
:102F0000FFF72EFA28464A464FF48051FFF728FA79
:102F1000304604214022FFF723FA30464FF40041A7
:102F20004022FFF71DFA404649460322FFF718FAF0
:102F3000404659460322FFF713FA40460421032274
:102F4000FFF70EFA404608210322FFF709FA384638
:102F500049460322FFF704FA384659460322FFF791
:102F6000FFF9284649464022FFF7FAF92846594614
:102F70000322FFF7F5F9284610210322FFF7F0F9A5
:102F8000284620210322FFF7EBF930464A464FF44A
:102F90008051FFF7E5F930464FF400514FF481724C
:102FA000FFF7DEF930464FF480414FF48172FFF7AE
:102FB000D7F9204651464022FFF7D2F920464FF478
:102FC00000618222FFF7CCF920464FF400518222A3
:102FD000FFF7C6F920464FF480418222FFF7C0F97F
:102FE0003846402140F20222FFF7BAF938468021E4
:102FF00040F20222FFF7B4F940464FF4807140F2EC
:103000000222FFF7ADF928465146BDE8F84F40F2DD
:103010000222FFF7A5B900BF0010024000040240E1
:10302000000C02400008024000000240AFF30080A4
:1030300010B5FEF775FC13481349FEF799FC1348C9
:103040001349FEF795FC13481349FEF791FC134C06
:1030500013481449FEF78CFC13491448FEF788FC0A
:10306000FEF7DEFB2046FEF7E3FB20461049FEF7A5
:10307000E7FB10480021FEF7C3FBBDE81040FEF758
:10308000FFBB00BFD40A0020005A00084C0B0020F0
:10309000105A0008C40B0020205A0008500A0020D3
:1030A0003C0C0020D0590008F0590008B40C002056
:1030B000E05900081C0A0020AFF30080AFF3008045
:1030C00008B5FFF79DFEBDE80840FFF7B1BF00BFA0
:1030D00003463022002930B403F8012B427082707D
:1030E000C27010DB051D01F00F02092A02F137043E
:1030F00096BF30321C701A700133AB424FEA211177
:10310000F1D130BC70474942312209B20270E9E77F
:103110002DE9F047864684B01D4EBDF9308000276A
:103120004FF0420C4FF0300A4FF03409194D3C4635
:10313000ADF80E7037767776B776F776ADF804008F
:10314000ADF80610ADF80820ADF80A3086F802A0F8
:1031500086F8039086F800C086F801C0ADF80C80B0
:1031600001AF0FFA8EF10C48FFF7B2FF201D0A4B9A
:10317000321813F8011BAB4202F8011BF9D11828D1
:1031800003D0044637F802EFEBE704B0BDE8F08760
:10319000880E0020A80E0020A40E0020AFF30080AF
:1031A000F0B5174E174D83B0FEF70AF90446B6F98D
:1031B0000870B6F90420B6F90630B6F90000B6F981
:1031C00002100097FFF7A4FF20460021FEF718F930
:1031D0000D480A214FF0FF32FEF7CAF90B4C14F8E4
:1031E000011F09484FF0FF32FEF7C2F9AC42F6D199
:1031F0000A214FF0FF320448FEF7BAF9D4E700BFC6
:10320000780E0020A30E00207C0B0020870E0020EB
:10321000F0B4084C9DF81460074FBDF910502080A1
:10322000618038683146A280E3802581F0BCFEF7DA
:10323000A7B800BF780E0020840E0020AFF30080F6
:1032400030B5114C87B020686168A26802AB07C333
:10325000A5890DF107041D800DF1150514F8011F56
:103260000A484FF0FF32FEF783F9AC42F6D1002353
:1032700000934FF4A4714022054B0648FDF740FF30
:10328000054B186007B030BD105700087C0B0020BC
:10329000A1310008300D0020840E0020AFF3008023
:1032A00070B5134D134E14484FF0FF31FEF7E8F898
:1032B000C0B20A281AD000242044303800EB800421
:1032C0004FF0FF310C48FEF7DBF86400C0B2A4B247
:1032D0000A28A4B2F0D124B286FB0431E417C4EB6F
:1032E000A10109B22868FEF74BF8DCE70021F9E7F5
:1032F000A80E002067666666E00A0020AFF3008033
:1033000010B5074CFEF75CF8016BB1F5B47FAEBFAA
:10331000218889B2218009B2FEF772F8F2E700BF76
:1033200000080020AFF30080AFF30080AFF300800F
:1033300010B5002482B000944FF4A47140220E4BCB
:103340000E48FDF7DDFE0E4B0094402218604FF44E
:10335000A4710C4B0C48FDF7D3FE0C4C20604FF4CD
:103360007A70FDF715FF20684FF4C871FEF708F872
:10337000074B188002B010BDA132000800100020D9
:103380004811002001330008B00E0020A80E0020D4
:10339000F80F0020AFF30080AFF30080AFF30080A0
:1033A00001222DE9F8431346144FDFF85C80012B0E
:1033B000134E3A704FF00009D8F8000015D00921DB
:1033C000FDF7DEFF03231C460C250134F15C0D489C
:1033D0004FF0FF32E4B2FEF7CBF863B2AB42F4DB5E
:1033E0003B78D8F80000012BE9D10321FDF7C8FF95
:1033F000002387F800901C460325E6E7B41400205C
:1034000004080020E40C0020E0130020AFF300804B
:103410002DE9F0411A4FDFF87080FDF7D1FF90F8E9
:1034200030600021FDF7ECFFEEB100252C46154879
:103430004FF0FF31FEF724F8C0B20A2802D00CB9D1
:103440002546F4E7032E14D063B2042B06DD402892
:103450008CBF37383038053DC0B278550134E4B2FE
:1034600065B2B542E3DBD8F800000121FDF788FF23
:10347000D3E70134E4B265B2032DD8DBCDE700BF5A
:10348000B0140020C00C0020B8140020AFF300805E
:10349000DFF848C12DE9F04F4FF0000B5D465C4668
:1034A000E24685B0444ECDF80CB0CDF804B0CDF86E
:1034B00008B039A3D3E90023F6E90201FDF7D8F8F3
:1034C0005AF8047F804638468946FDF76BF834A3E6
:1034D000D3E90023FDF7CCF802460B4640464946A7
:1034E000FCF714FF30A3D3E90023C6E90001FDF780
:1034F00055FB88B1314B029A33F815B0304B5A4422
:10350000934633F81530019A1FFA8BFB1A4493B295
:103510000393CDF808B00193012F05F1010508BF11
:103520000124102DC5D1A246264A274BA2F800B08F
:10353000BDF80C10254AA3F800A0BDF904001180C5
:10354000FDF730F8029C064620B20F46FDF72AF838
:1035500002460B463046394600F02AFD14A3D3E953
:103560000023FDF7AFF90022194BFDF781F8FDF7B5
:103570001FFB184C00B200F2951080FB0445C317E6
:103580004219C3EB22234FF4B47202FB1300124B17
:10359000188005B0BDE8F08F666666666666EE3F29
:1035A000A09999999999A93F8014AE47E17AA43FCF
:1035B0006E861BF0F921094028140020305A0008BB
:1035C000505A0008281400202E1400202C1400202B
:1035D00000806640B7600BB62A140020E01300207C
:1035E000F8B50E4FFDF7ECFE0D4E0E4D294616F8C0
:1035F000014B002344FA03F2013302F00102042BD1
:1036000041F8042BF6D1BE4205F11005EED10021A0
:10361000FDF7F6FEFFF73CFFE4E700BFB41400201F
:10362000B0140020E4130020AFF30080AFF300805B
:10363000054BB3F900301BB1044B188800B270473A
:103640004FF6FF70FAE700BF2E1400202A14002066
:10365000164B0020002103F18002E3E902019342AE
:10366000FBD130B5002483B0114D00944FF4A47108
:103670004022104B10482C80FDF742FD0F4B009468
:103680004FF4A471186040220D4B0E48FDF738FD31
:103690000D4B00944FF4A471186040220B4B0C4862
:1036A000FDF72EFD0B4B186003B030BD2814002031
:1036B0002E1400201134000898120020E01300207E
:1036C000A13300085011002024140020E135000827
:1036D000C0140020B8140020AFF30080AFF30080C6
:1036E00038B5FDF76DFE036B0F4C012B0F4D0FD05E
:1036F0000F4B104A33F8021BA34222F8021BF9D1E8
:103700000021FDF77DFEFDF75BFE036B012BEFD182
:10371000094B074A33F8021BAB4222F8021BF9D1CE
:103720000021FDF76DFEEEE718160020C8180020F6
:103730000C160020B0180020BC180020AFF3008049
:10374000024B02211868FDF71BBE00BF6017002066
:10375000014BB3F900007047B0180020AFF30080B0
:10376000014BB3F902007047B0180020AFF300809E
:10377000014BB3F904007047B0180020AFF300808C
:10378000014BB3F906007047B0180020AFF300807A
:10379000014BB3F908007047B0180020AFF3008068
:1037A000014BB3F90A007047B0180020AFF3008056
:1037B00038B51B484FF0FF31FDF762FE194DC0B21E
:1037C0002B28287029D02D2827D0002401E02D286F
:1037D00019D02044303800EB80044FF0FF311048FE
:1037E000FDF74EFE6400C0B2A4B22B28A4B228702C
:1037F000EDD10D4824B280FB0430E417C4EBA000E7
:1038000080B200B238BD084824B280FB0430E4170F
:10381000A4EBA00080B200B238BD0020F1E700BFE9
:10382000480C00200816002067666666AFF300802B
:103830002DE9F84F2A4F4FF4D27500232C46AA46A3
:10384000A946DFF8A480DFF8A4B03B810AE0314646
:10385000DBF80000FD80BC80A7F80090A7F802A06C
:10386000FDF78EFD02261F484FF0FF31FDF708FEE1
:10387000C0B2782888F8000018D079281AD07A28A1
:1038800020D0692822D070280DD0732816D06B283C
:1038900023D061281ED0622804BF00237B81012E23
:1038A000D5D00126DFE701233B81F8E7FFF780FF52
:1038B0008146F4E7FFF77CFF8246F0E74FF0000314
:1038C0003B81ECE7FFF774FF0446E8E7FFF770FF82
:1038D0000546E4E701237B81E1E700F041F8DEE7FC
:1038E000BC180020480C002008160020601700209B
:1038F00010B5002482B000944FF4A4714022094B0B
:103900000948FDF7FDFB094B00944FF4A4711860C2
:103910004022074B0748FDF7F3FB074B186002B046
:1039200010BD00BF31380008681700206417002060
:10393000E13600081816002060170020AFF3008061
:10394000024B1869C0F38000704700BF000C0240B2
:10395000024B1869C0F3C030704700BF000C024032
:1039600038B5044C4FF4805525836420FDF710FCD6
:10397000658338BD00080240AFF30080AFF30080DC
:10398000114B1248B3F9003080FB0320DB17A3EB87
:10399000E0003C3080B203B23C2B12DC002BB8BFFD
:1039A00000200B4B0B4A1B88B2F90020013B9BB255
:1039B000042B98BF6420B2F5D27F08BF3C2000B230
:1039C00070473C20EDE700BF12080020676666667E
:1039D000DC18002018080020AFF30080AFF300804F
:1039E000144B10B5B3F900300446B3F5D27F1AD0AA
:1039F000FFF7C6FF40F29B33C0F1640000B203FB47
:103A000000F00D4AC31782FB0020C3EB601000B228
:103A100000FB04F0094AC31782FB0020C3EB6030AF
:103A200080B200B210BDFFF7ABFF40F29B33C0F194
:103A30008C00E3E7180800201F85EB516B29827486
:103A40002DE9F04F642889B06FD050286DD006461C
:103A50001E38FCF7A7FD38A3D3E90023FCF708FEC6
:103A60000022374BFCF72EFF00F052FA02AD4FF068
:103A7000000804468A46A946C346A6F19603019368
:103A8000264657462046514600220023E9E80267B1
:103A9000FDF766F800283DD1224653464046594678
:103AA000FDF75EF848B10022002320465146FDF79D
:103AB00057F800283DD1A046D34608AB994514D00D
:103AC000019C2046FCF76EFD1BA3D3E90023FCF705
:103AD000CFFD1B4B0022FCF7F5FE00F019FAA4F114
:103AE0007803019304468A46CAE7164CF5E80201BA
:103AF0000022154BFCF7BCFD5B464246FCF7E2FE9C
:103B0000FDF756F808AB9D4244F8040BEED109B01E
:103B1000BDE8F08F0AF1004A204642465B46514616
:103B2000FDF73CF80028C6D1C7E7084808495A26DF
:103B30009CE70AF1004ABEE76E861BF0F9210940B6
:103B400000806640CC18002000408F40A2D1E7FAE8
:103B500079B6EB3FAFF30080AFF30080AFF30080A6
:103B60002DE9F84F514B06461C886442A4B2A3B21B
:103B70001AB212F5D27F72D04D4901280B8069D05C
:103B8000032E65D09CB26420FFF72AFF494D00FB4D
:103B900004F0AB46294684B205F10C074FF0000A49
:103BA00051F8043B18B200284CDB8245B8BF82466E
:103BB000B942F5D140F29B38DFF8F89024B2FFF714
:103BC000DFFE08FB00F03C4B83FB0023C017C0EB7B
:103BD000631000B2D9F80030001B03FB00F090FB2B
:103BE000FAF049F8040BB945E9D1DBF80030DBF80D
:103BF0000420DBF80810224423440C44CBF80420B2
:103C0000CBF80030CBF808402A4A2EB9334604EBF3
:103C10004404946016605660002B284903F2654204
:103C200008DD8D422A600BD055F8043F002B03F2CB
:103C30006542F6DC1CBFA3F265432B608D42F3D1D5
:103C4000BDE8F88F5B421BB29A45B8BF9A46AFE712
:103C5000002498E7052A15DD3C24012693E7184B3C
:103C600093F90030002B124BB3F9003004DD002B28
:103C70000FDB3C23002685E7002B0EDB0128EBD071
:103C80003C237DE74FF6C47312F1050FB8BF1C4605
:103C900079E74FF6C474002675E7012802D04FF685
:103CA000C4736DE74FF6C4746DE700BF16080020BB
:103CB000D8180020CC1800201F85EB51D418002004
:103CC000DE180020AFF30080AFF30080AFF3008078
:103CD00008B5FFF7ADFC431C0A4A05D00A4B0A2180
:103CE0001180188000B208BD138819B2002905DDC3
:103CF0000549013B0888138000B208BD4FF6FF70EC
:103D0000F0E700BFC8180020DA180020AFF30080E9
:103D10002DE9F04F83B0FDF73BFD6F4EFCF7C0FF80
:103D20006E4FFFF7CDF9DFF8D4B1FFF789FADFF86E
:103D3000D0A1FFF78DFC6A4CFFF7FAFA694DFFF747
:103D4000D7FDDFF8AC916FE0B8F1FF3F40F0AC80F9
:103D50003088B0F5D27F00F0BA80BBF90030C0F1F6
:103D60005A00322B80B20EDD03B25F4A87335B000C
:103D700083FB0201DA175818C2EB20224FF4B4700B
:103D800000FB123080B200B2FFF75AFE4FF6C012AD
:103D9000564B4FF4007159839AF900004FF4C863F1
:103DA00062802380FFF7DCFE97F90030002B04DDF2
:103DB000FFF7C6FD002840F08180B9F900304C4A79
:103DC000002B75DD494B4FF400721A835A200023F3
:103DD00023806380FFF734FE0220FFF7C1FEB9F8AD
:103DE000003043491AB2002A65DD013B9BB2012B2A
:103DF0000B8069D0B4F902C04FF0010EB5F908206C
:103E0000B4F90030B5F90000B5F904108DE80050A0
:103E1000FFF7FEF93B785AB2002A02DD2F4A013B38
:103E200013706420FDF7B4F9FFF78AFCFFF750FF29
:103E30008046FFF79DFC3080FFF7A2FCABF8000046
:103E4000FFF786FC2B4B1880FFF78AFC33882A4A41
:103E5000B3F5D27F108002D01F4A043B1380FFF7D6
:103E600077FD78B1328813B2002BBCBF53421BB22E
:103E7000042B07DC97F90030184A032BCCBF0D2325
:103E80000823137002238AF80030FFF781FC002812
:103E90007FF45AAF154B4FF4007260806860A860E1
:103EA0001A83208028607FE74046FFF7C9FD6DE751
:103EB000002313809EE706230B809BE7FFF770FC2F
:103EC00000283FF47AAF7DE7FFF74AFD92E74FF411
:103ED0008770FFF7B5FD59E718080020DE180020AD
:103EE000E0180020CC180020B7600BB6000C024090
:103EF000DC180020160800201008002012080020FE
:103F000014080020AFF30080AFF30080AFF300800F
:103F100070B5224E21F00044B44286B002460B46F2
:103F20001ADD1F4DAC4203DDFCF7EEF906B070BDA3
:103F300002AA00F03DF900F0030001281DD002287C
:103F400012D008B3DDE90201DDE9042300F050FBE3
:103F500001F1004106B070BD002300930022002350
:103F600001F04EF806B070BD01230093DDE90201B7
:103F7000DDE9042301F044F8EAE7DDE90201DDE9C7
:103F8000042300F035FBD1E701230093DDE90201B2
:103F9000DDE9042301F034F8C8E700BFFB21E93F65
:103FA000FFFFEF7F000000000000000000000000A5
:103FB00000F006B800000000000000000000000053
:103FC0002DE9F047C2F1000949EA020923F000484F
:103FD000DFF8D4C148EAD97982B0E14514461D46DC
:103FE000CDE900010F4647D8C0F1000A4AEA000AAD
:103FF00021F0004949EADA7AE2453DD803F1404C24
:104000000CF5801C5CEA020C4CD04FEAA37A0AF053
:10401000020A4AEAD17A59EA000136D058EA040184
:104020003AD06149884551D05F49894534D0C8EBC1
:1040300009084FEA2858B8F13C0F43DC002D70DB2B
:10404000DDE90001FCF73EFC01F03AFA01F090F8DE
:10405000BAF1010F62D0BAF1020F52D0BAF1000FDB
:1040600010D03FA3D3E90023FCF74EF93EA3D3E9D8
:104070000023FCF749F905E010461946DDE9002365
:10408000FCF744F902B0BDE8F087BAF1030FC5D8D8
:10409000DFE80AF00D0D1410002F2EDB34A1D1E95A
:1040A0000001EFE702B0BDE8F04701F061B8DDE9DB
:1040B0000001E7E730A1D1E90001E3E72AA1D1E956
:1040C0000001DFE72AA1D1E90001C1E7C1452ED0F7
:1040D000BAF1030FA8D801A151F82AF0F540000861
:1040E000ED400008BD400008B540000800204FF03A
:1040F0000041C7E700200021C4E721A1D1E9000168
:10410000C0E717A3D3E90023FCF7FEF802460B46ED
:1041100015A1D1E90001FCF7F7F8B3E701F100417F
:10412000B0E718F13C0F8BDA0020002190E7BAF1DC
:10413000030FB1D8DFE80AF006020E0A12A1D1E996
:1041400000019FE712A1D1E900019BE712A1D1E98B
:10415000000197E712A1D1E9000193E7AFF30080D6
:10416000075C143326A6A13C182D4454FB210940BA
:10417000182D4454FB21F93F182D4454FB2109C04C
:10418000182D4454FB21F9BF182D4454FB21E9BFDD
:10419000182D4454FB21E93FD221337F7CD902C042
:1041A000D221337F7CD902400000F07FAFF3008042
:1041B0002DE9F04F964B21F000469E4291B0044607
:1041C0000D468B46904640F38180924B9E4226DC02
:1041D00085A3D3E90023002940F3A081FCF794F8DC
:1041E0008D4B04469E420D4600F0858080A3D3E9A6
:1041F0000023FCF789F802460B46C8E90023204655
:104200002946FCF781F87AA3D3E90023FCF77CF870
:104210000127C8E90201384611B0BDE8F08F7F4B95
:104220009E4240F385807E4B9E425ADC4FEA2659DF
:10423000A9F21649A6EB095529460446FCF7B8FC35
:10424000FCF7B0F906460F4602460B4620462946C3
:10425000CDE90A67FCF758F80022724BFCF708FA20
:104260000F460646FCF7A4FCFCF79CF902460B46F9
:1042700004460D4630463946CDE90C45FCF744F876
:104280000022684BFCF7F4F900220023CDE90E016F
:10429000FCF75CFC002800F06D81002320462946D5
:1042A0000022FCF753FC002814BF012302235E48C0
:1042B0000221019000914A460AA8414600F0C0FA46
:1042C000BBF1000FC0F24881074606E00022002340
:1042D000C8E90045C8E902230027384611B0BDE807
:1042E000F08F02460B46FCF70FF80027C8E90201E1
:1042F000C8E90001F1E740A3D3E90023FCF704F883
:104300003FA3D3E9002304460D46FBF7FDFF024619
:104310000B46C8E9002320462946FBF7F5FF38A3E2
:10432000D3E90023FBF7F0FF0127C8E90201D4E736
:1043300001F0C6F834A3D3E9002304460D46FCF788
:1043400097F90022394BFBF7E1FFFCF731FC0746F8
:10435000FCF728F924A3D3E90023CDE90601FCF7F3
:1043600087F902460B4620462946FBF7CDFF20A3DE
:10437000D3E90023CDE90201DDE90601FCF778F974
:104380001F2FCDE90401DDE9020153DC284B7A1E21
:1043900053F82230B3424DD0DDE90423FBF7B4FFDC
:1043A00004460D46C8E90045DDE9020122462B46D8
:1043B000FBF7AAFFDDE90423FBF7A6FFBBF1000F23
:1043C000C8E9020189DA264601F1004305F10044FB
:1043D0007F42C8F80060C8F80440C8F80800C8F870
:1043E0000C307AE7AFF3008000004054FB21F93F26
:1043F0003163621A61B4D03D0000601A61B4D03DEF
:104400007370032E8A19A33B83C8C96D305FE43FE4
:10441000FB21E93F7BD90240FB21F93FFB213941D8
:10442000FFFFEF7F00007041F05A00080000E03FFE
:10443000705A0008DDE90423FBF766FF3615C1F367
:104440000A53F31A04460D46102BC8E90045ABDDAC
:104450005BA3D3E90023DDE90601FCF709F9044673
:104460000D4622462B46DDE90201FBF74DFFCDE963
:104470000801DDE90823DDE90201FBF745FF2246DB
:104480002B46FBF741FF50A3D3E9002304460D461A
:10449000DDE90601FCF7ECF822462B46FBF734FF7A
:1044A000CDE90401DDE90423DDE90801FBF72CFF78
:1044B000C1F30A53F61A04460D46312EC8E90045E9
:1044C00078DD43A3D3E90023DDE90601FCF7D0F84A
:1044D00004460D4622462B46DDE90801FBF714FF92
:1044E000CDE90201DDE90223DDE90801FBF70CFF5C
:1044F00022462B46FBF708FF37A3D3E900230446E7
:104500000D46DDE90601FCF7B3F822462B46FBF722
:10451000FBFECDE90401DDE902013DE7FBF7F6FE14
:10452000314B04469E420D4626D02DA3D3E90023ED
:10453000FBF7ECFE02460B46C8E90023204629465D
:10454000FBF7E2FE26A3D3E90023FBF7DFFE4FF0E3
:10455000FF37C8E90201C0E6D8F80420D8F80C30CB
:1045600002F1004203F100434742C8F80420C8F8B2
:104570000C30B2E603239AE611A3D3E90023FBF73C
:10458000C5FE11A3D3E9002304460D46FBF7BEFE8A
:1045900002460B46C8E9002320462946FBF7B4FE35
:1045A00009A3D3E90023FBF7B1FE4FF0FF37C8E9B9
:1045B000020192E6DDE90823CDE90223F4E600BF1B
:1045C0000000601A61B4D03D7370032E8A19A33BBA
:1045D0000000002E8A19A33BC14920259A837B390C
:1045E0003163621A61B4D03DFB21F93FAFF3008023
:1045F0002DE9F04F21F00049B9F1795F85B0064609
:104600000F4692469B466BDAFCF7D2FA002800F080
:10461000EA8032463B4630463946FCF729F874A317
:10462000D3E9002304460D46FCF722F872A3D3E930
:104630000023FBF76BFE22462B46FCF719F870A30C
:10464000D3E90023FBF760FE22462B46FCF710F867
:104650006DA3D3E90023FBF759FE22462B46FCF756
:1046600007F86BA3D3E90023FBF74EFE22462B4647
:10467000FBF7FEFF68A3D3E90023FBF747FE2246C2
:104680002B46FBF7F5FFCDE9000120462946002225
:10469000634BFBF7EDFFDDE90023804689462046AA
:1046A0002946FBF7E5FF524604460D465B46304679
:1046B0003946FBF7DDFF02460B4620462946FBF74D
:1046C00023FE02460B4640464946FBF71DFE0246C6
:1046D0000B4600205349FBF717FE05B0BDE8F08FED
:1046E00002460B46FBF7C4FF41A3D3E9002304466F
:1046F0000D46FBF7BDFF40A3D3E90023FBF706FE01
:1047000022462B46FBF7B4FF3DA3D3E90023FBF77A
:10471000FBFD22462B46FBF7ABFF3BA3D3E900236F
:10472000FBF7F4FD22462B46FBF7A2FF38A3D3E9A3
:104730000023FBF7E9FD22462B46FBF799FF36A342
:10474000D3E90023FBF7E2FD2B462246FBF790FF5F
:10475000354BCDE90001994597DD344B0022994551
:1047600039DCA9F50013002200202E499046994615
:10477000FBF7CAFDCDE90201204629460022284B5D
:10478000FBF776FF42464B46FBF7BEFDDDE9002313
:104790008046894620462946FBF76AFF5246044672
:1047A0000D465B4630463946FBF762FF02460B4634
:1047B00020462946FBF7A8FD02460B4640464946DF
:1047C000FBF7A2FD02460B46DDE90201FBF79CFD6B
:1047D00005B0BDE8F08F164B4FF00008CDE902237D
:1047E000DFF85090C8E70F49002005B0BDE8F08F12
:1047F000D43888BEE9FAA8BDC4B1B4BD9EEE213E4E
:10480000AD529C804F7E923E9015CB19A001FA3E8E
:104810007751C1166CC1563F4C5555555555A53F5E
:104820000000E03F0000F03F3233D33F0000E93F9B
:104830000000E73F0000D23F000000000000000041
:104840002DE9F04F7B4DD41E85FB0465E417C4EBC6
:10485000A505ADF51D7D25EAE5750E959946764CC5
:10486000EB43A69D09F1FF3654F8254004960C94BD
:1048700007900E9C049D0C9803EB430302EBC303CB
:10488000A61B2C180B910A9317D4A7983444013413
:104890000DF1880800EB8605002709E0E859FBF7D1
:1048A00081FE0136A642E8E9020107F1040704D0BF
:1048B000002EF3DA00200021F3E70C9C002C2DDB06
:1048C0000C9D74AE06EBC50B24A800EBC90A0DF5D0
:1048D000E478CDF80CB0049C002CC0F29581079DC3
:1048E0005746A5F1080B00240025002677E902238E
:1048F000FBE90201FBF7BCFE02460B4620462946B7
:10490000FBF704FD01364E4504460D46EED1E8E9BD
:104910000245039C0AF1080AA045DCD10C9D10ACAD
:1049200004EB850602940F960395039E9CABF6005C
:1049300033440696039E53E92845002E2EDD069E3D
:104940000DF5E87AB244039E0DF13C0B0BEB860BA0
:104950000DF13C080022394B20462946FBF788FE22
:10496000FCF726F9FBF71EFE0022354B06460F46E4
:10497000FBF77EFE02460B4620462946FBF7C4FCA9
:10498000FCF716F9324648F8040F3B467AE9020173
:10499000FBF7BCFCD84504460D46DBD12046294632
:1049A0000A9A00F025FE00224FF07F5304460D4680
:1049B000FBF75EFE00F08CFD0022224BFBF758FE59
:1049C00002460B4620462946FBF79EFC04460D4650
:1049D000FCF7EEF88246FBF7E5FD02460B46204663
:1049E0002946FBF791FC0A9C0646002C0F4640F333
:1049F000F280039D10A8691E50F82130C4F1180000
:104A000043FA00F202FA00F0C4F117051B1A43FA48
:104A100005F510AC44F821309244002D3EDD039C96
:104A20000AF1010A002C40F3F98010AB03EB84017A
:104A3000002411E0ABAAAA2A005C00080000703E26
:104A40000000704100002040C2F1807012B143F8B4
:104A5000040C01248B420DD053F8042B002CF3D00E
:104A6000C2F1FF1202F57F428B4243F8042C4FF053
:104A70000104F1D10A9800280DDD012800F0B3806F
:104A8000022808D1039910A84B1E50F82320C2F326
:104A9000150240F82320022D00F08480304639466C
:104AA00000220023FCF752F8002800F0B980039C94
:104AB0000C9E04F1FF3846450DDC10A800EB840382
:104AC0000F98002253F8041D834242EA0102F9D1F3
:104AD000002A40F044820C9C10AD621E55F8223032
:104AE000002B40F0548205EB8202012352F8041D92
:104AF00001330029FAD0039E039C1E44631CB34279
:104B00000D9649DC049D0E9E2B44214622460D9DA8
:104B10003244494424AE03F1FF3B2B1B06EBC10496
:104B20000994A79D069C06EBCB0B74AE05EB8202A5
:104B3000DB0026440392089306964FF00008039D7D
:104B400008F1080855F8040F0395FBF72BFD049EA8
:104B5000EBE90201002E22DB079C099FA4F1080A61
:104B6000474400240025002677E90223FAE90201E0
:104B7000FBF77EFD02460B4620462946FBF7C6FBA7
:104B800001364E4504460D46EED1069EE6E9024545
:104B9000089C0696A045D2D10D9D0395C5E600243C
:104BA0000025F2E732463B4600209249FBF7ACFB7A
:104BB00006460F46002C3FF471AF0A9A00208D493B
:104BC00000F016FD02460B4630463946FBF79CFBCB
:104BD00006460F4662E710D1039D10A86B1E50F8E1
:104BE0002350ED1519E7039910A84B1E50F8232008
:104BF000C2F3160240F823204DE700227E4BFBF75C
:104C0000C3FF20B9054649E7002400257FE6039C41
:104C10000225002C0AF1010A3FF707AF002429E71B
:104C20000A9C3046624239460695CDF81CA000F039
:104C3000DFFC0022714B04460D46FBF7A5FF002860
:104C400000F0BB8100226E4B20462946FBF710FD89
:104C5000FBF7AEFF0646FBF7A5FC0022674BFBF710
:104C600007FD02460B4620462946FBF74DFBFBF7A6
:104C70009FFF039C0A9D10A904F10108183541F813
:104C800024000A9541F828600A9A0020594900F04A
:104C9000AFFCB8F1000F04460D465ADB08F10106DF
:104CA00010A874A9039600EB860701EBC60657F817
:104CB000040DFBF777FC22462B46FBF7D9FC0022BC
:104CC00066E902014E4B20462946FBF7D1FC029AC9
:104CD000044697420D46EAD108F1005B0BF1FF3B19
:104CE00074AB0DF5987ACDF82080DDF8308003EBB9
:104CF000CB0B4FF00009CDF810A0B8F1000FC0F2B7
:104D00002881DFF800A15F4600240025002601E08D
:104D10004E4510DCF7E90223FAE90201FBF7A8FC93
:104D200002460B4620462946FBF7F0FA0136B0450D
:104D300004460D46ECDA049EABF1080B06EBC90302
:104D4000C3E90045039C09F10109A145D5D1DDF86E
:104D50002080A69D032D00F29780DFE815F0DA0091
:104D60009C009C000400B8F1000F40F312810DF587
:104D7000987A08F101030AEBC3034FEAC80B0393C7
:104D800099460AEB0B030DF59C7CD3E9006701E023
:104D900026462F4659E9044532463B4620462946D9
:104DA000CDF804C0CDE90445FBF7B0FA04460D4642
:104DB00022462B46DDE90401FBF7A6FA32463B46C4
:104DC000FBF7A4FA69E90201DDF804C049E90245EC
:104DD000E145DDD1B8F1010F40F30D81DDF80CC0E4
:104DE0000AEB0B03CDF810A00AF1100BD3E9004534
:104DF000E2460BE00000F03F0000E03F00007041A1
:104E00000000703E085C000834463D465AE90489BB
:104E100022462B4640464946FBF778FA06460F469F
:104E200032463B4640464946FBF76EFA22462B4641
:104E3000FBF76CFA6AE90201DA454AE90267E3D155
:104E4000DDF810A0039C0020002174E90223FBF789
:104E50005DFAA345F9D1069D002D00F0A280DAF895
:104E60000450DAF80C400B9EDAF80020DAF808302B
:104E700005F1004504F1004401F100417560F46062
:104E80003260B36030617161079C04F007000DF57A
:104E90001D7DBDE8F08FB8F1000FC0F2A7800DF5C1
:104EA000987A08F10104002200230AEBC40410469A
:104EB000194674E90223FBF729FA5445F9D1024651
:104EC0000B46069E002E47D0104603F100410B9C76
:104ED000C4E90001DAE90001FBF716FAB8F1000FA6
:104EE00007DD0AEBC808FAE90223FBF70FFAC2450F
:104EF000F9D1069D002D6AD00B9E024601F10043B8
:104F0000C6E90223079C04F007000DF51D7DBDE8EE
:104F1000F08FB8F1000F66DB08F101044CAD05EB32
:104F2000C4040020002174E90223FBF7EFF9AC422E
:104F3000F9D1069C002C50D00B9D024601F1004394
:104F4000C5E90023079C04F007000DF51D7DBDE8B1
:104F5000F08F00240025EEE610461946B7E70A9EBA
:104F6000069510AD55F82830183ECDF81CA00A96CD
:104F7000002B7FF489AE05EB8803324653F8041DFD
:104F800008F1FF38183A0029F8D00A927CE601238C
:104F9000B1E5069D002000210DF5987A002D7FF4E3
:104FA0005EAF0B9EDAE90023C6E90401DAE90201EB
:104FB000C6E90023C6E9020166E720462946FBF759
:104FC000F7FDDDF80C8010AA42F828005CE60B9E85
:104FD00002460B46C6E9022394E70B9D02460B46A8
:104FE000C5E90023AEE700200021A2E7002200234C
:104FF0000DF5987A65E7002000212CE700000000FD
:105000002DE9F04F21F00046B6F1795F85B00446F6
:105010000D469046994604DAFBF7CAFD002800F0D9
:10502000848022462B4620462946FBF721FB224658
:105030002B4606460F46FBF71BFB3FA3D3E9002395
:1050400082468B4630463946FBF712FB3CA3D3E938
:105050000023FBF759F932463B46FBF709FB3AA31D
:10506000D3E90023FBF752F932463B46FBF700FB3E
:1050700037A3D3E90023FBF747F932463B46FBF75A
:10508000F7FA35A3D3E90023FBF740F90E9BCDE9EE
:105090000201002B33D0404649460022324BFBF739
:1050A000E7FADDE90223CDE9000150465946FBF756
:1050B000DFFA02460B46DDE90001FBF725F932462F
:1050C0003B46FBF7D5FA42464B46FBF71DF924A3B6
:1050D000D3E9002306460F4650465946FBF7C8FA67
:1050E00002460B4630463946FBF710F902460B469E
:1050F00020462946FBF708F905B0BDE8F08FDDE949
:10510000022330463946FBF7B3FA15A3D3E900234F
:10511000FBF7FAF852465B46FBF7AAFA22462B4603
:10512000FBF7F4F805B0BDE8F08F2046294605B03E
:10513000BDE8F08FAFF300807CD5CF5A3AD9E53D7A
:10514000EB9C2B8AE6E55A3E7DFEB157E31DC73E38
:10515000D561C119A0012A3FA6F810111111813F94
:10516000495555555555C53F0000E03FAFF3008008
:105170002DE9F04FB64B21F000469E4283B0044625
:105180000D4689460FDDB3498E4200F3B38000F02F
:10519000AE80B9F1000F40F3EF8091A1D1E9000199
:1051A00003B0BDE8F08FAC4B9E4200F3BD80A3F18D
:1051B000DE739E4240F3A7804FF0FF3C22462B4611
:1051C00020462946CDF804C0FBF752FA02460B46AA
:1051D00082468B46FBF74CFA83A3D3E900230646AD
:1051E0000F46FBF745FA82A3D3E90023FBF78EF8BD
:1051F00032463B46FBF73CFA7FA3D3E90023FBF79B
:1052000085F832463B46FBF733FA7DA3D3E900230A
:10521000FBF77CF832463B46FBF72AFA7AA3D3E940
:105220000023FBF773F832463B46FBF721FA78A3DD
:10523000D3E90023FBF76AF852465B46FBF718FAFE
:1052400075A3D3E9002382468B4630463946FBF7E7
:105250000FFA73A3D3E90023FBF756F832463B4617
:10526000FBF706FA70A3D3E90023FBF74DF83246AB
:105270003B46FBF7FDF96EA3D3E90023FBF744F8A7
:1052800032463B46FBF7F4F96BA3D3E90023FBF767
:105290003BF832463B46FBF7EBF9DDF804C002462B
:1052A000BCF1FF3F0B466BD0504659464FEACC0647
:1052B000FBF72CF822462B46FBF7DAF9674F684BD1
:1052C00037441E44D6E90023FBF71EF822462B463E
:1052D000FBF71AF802460B46D7E90001FBF714F872
:1052E000B9F1000F0CDA01F10045294608E0002869
:1052F0003FF44FAF2046294622462B46FBF706F8DF
:1053000003B0BDE8F08F4EA3D3E90023FAF7FEFF08
:105310000022544BFBF742FC00283FF44DAF2046DF
:10532000294603B0BDE8F08F00F0CAF84E4B0446A2
:105330009E420D4633DCA3F550239E4200F3A58028
:1053400002460B46FAF7E2FF0022464BFAF7DCFF73
:10535000002206460F46204629464FF08043FAF7C2
:10536000D5FF02460B4630463946FBF7ABFA4FF005
:10537000000C04460D4621E733A1D1E90001BFE747
:1053800050465946FAF7C2FF22462B46FBF770F902
:1053900002460B4620462946FAF7B6FFB0E7334BE4
:1053A0009E4267DC0022324BFAF7AEFF002206462F
:1053B0000F46204629462E4BFBF75AF90022294B6F
:1053C000FAF7A4FF02460B4630463946FBF77AFA55
:1053D0004FF0020C04460D46F0E600BFAFF300802C
:1053E000182D4454FB21F93F11DA22E33AAD903FE6
:1053F000EB0D76244B7BA93F513DD0A0660DB13F0C
:105400006E204CC5CD45B73FFF8300922449C23F73
:105410000D5555555555D53F2F6C6A2C44B4A2BF38
:105420009AFDDE522DDEAD3F6D9A74AFF2B0B33F00
:10543000711623FEC671BC3FC4EB98999999C93F78
:105440009C7500883CE4377E182D4454FB21F9BF3D
:10545000FFFF0F440000F07FFFFFDB3F705C0008A0
:10546000505C00080000F03FFFFFF23FFF7F034069
:105470000000F83F02460B4600200F49FBF722FAD6
:105480004FF0030C04460D4698E600220B4BFAF74A
:105490003BFF002206460F4620462946074BFAF7F7
:1054A00035FF02460B4630463946FBF70BFA4FF004
:1054B000010C04460D4681E60000F0BF0000F03FFD
:1054C00021F00041704700BF000000000000000014
:1054D0002DE9F84FC1F30A57A7F2FF36132E024603
:1054E0000B4604460D4689468A4680461CDC002E43
:1054F00040DB3D4F374107EA010C5CEA000C18D055
:1055000037A3D3E90023FAF701FF00220023FBF7BA
:1055100045FB28B1002D42DB2AEA07094FF00008BD
:1055200040464946BDE8F88F332E06DDB6F5806F5C
:1055300031D010461946BDE8F88FA7F2134C4FF052
:10554000FF3B2BFA0CFB1BEA000FF2D024A3D3E99C
:105550000023FAF7DBFE00220023FBF71FFB0028E5
:10556000DED0002D22DB28EA0B08D1464046494612
:10557000BDE8F88F1AA3D3E90023FAF7C7FE00228B
:105580000023FBF70BFB0028CAD0002D1CDB4FF0DB
:105590000008C146C4E7FAF7B9FEBDE8F88F4FF43A
:1055A000801A4AFA06F606EB050AB5E7142E14D05F
:1055B000C7F586670123033703FA07F717EB0408DB
:1055C00028BF05EB030ACEE725F00042074B224334
:1055D00018BF99464FF00008A2E705F1010AC2E79B
:1055E0009C7500883CE4377EFFFF0F000000F0BF91
:1055F000C1F30A532DE9F041904606460F460A468C
:105600001BBB21F00043034334D0354B0022FBF792
:105610002FF8344B064698450F463BDBC1F30A533F
:10562000363B0A46434440F2FE718B4216DD28A108
:10563000D1E9000132463B4600F05AF824A3D3E9F1
:105640000023FBF715F8BDE8F08140F2FF74A34298
:1056500027D0434440F2FE718B42E8DC002B0BDD87
:1056600022F0FF4222F4E00242EA03573046394674
:10567000BDE8F081BDE8F08113F1350F17DA4CF287
:1056800050339845D3DC14A1D1E9000132463B46A2
:1056900000F02EF810A3D3E90023FAF7E9FFBDE8E4
:1056A000F08102460B46FAF731FEBDE8F08122F0A8
:1056B000FF4222F4E002363342EA035730463946CD
:1056C0000022094BFAF7D4FFBDE8F081AFF3008068
:1056D0009C7500883CE4377E59F3F8C21F6EA50123
:1056E00000005043B03CFFFF0000903CAFF300804F
:1056F00030B403F0004321F0004243EA020130BC21
:10570000704700BF00000000000000000000000023
:105710000A80C50A4141303131313131310A00004E
:10572000AC5C0008E4180020E4180020E418002015
:10573000AC5C0008000000200000002000000020F9
:10574000AC5C0008000001200000012000000120E6
:10575000AC5C000800000000000000000000000039
:10576000AC5C0008000000100000001000000010F9
:10577000AC5C000800400240004002400040024093
:10578000AC5C000800000000000000000000000009
:10579000AC5C0008000000000000000000000000F9
:1057A00069646C650000000000000000000000005B
:1057B0006D61696E00164318040444080C10141837
:1057C000001C1D1E1F000000000000000000000063
:1057D000D1180008B118000811190008F1180008C4
:1057E00001190008E1180008C1180008A1180008F4
:1057F000106002400860024000000B002860024078
:105800000860024006010C0040600240086002404F
:1058100010020D00586002400860024016030E009E
:10582000706002400C60024000040F00886002407B
:105830000C60024006051000A06002400C600240AF
:1058400010061100B86002400C60024016072F00DD
:1058500010640240086402400008380028640240D6
:1058600008640240060939004064024008640240AE
:10587000100A3A005864024008640240160B3B00CC
:10588000706402400C640240000C3C0088640240DA
:105890000C640240060D4400A06402400C64024007
:1058A000100E4500B86402400C640240160F46001A
:1058B000444D41206661696C75726500000000000E
:1058C00000C20100000000400000000000000000D5
:1058D00000000028000000005555555555555555F8
:1058E000FFF0FFFF00005055700700000000A0000F
:1058F000000C00005555555500000000FF0FFFFF3C
:10590000006066000044000000000000000000008D
:105910005555555555000004FF08FFFF000000884D
:105920000000000000000000000000005555555523
:105930005555555500FFFFFF00000000770022007D
:10594000000000500000000055555555555555555F
:105950000002FFFF00000000000000000000000047
:1059600000000000FFFFFFFFFFFFFFFFFFFFFFFF43
:105970000000000000000000000000000000000027
:10598000FFFFFFFFFFFFFFFFFFFFFFFF0000000023
:10599000000000000000000000000000FFFFFFFF0B
:1059A000FFFFFFFFFFFFFFFF0000000000000000FF
:1059B0000000000000000000FFFFFFFFFFFFFFFFEF
:1059C000FFFFFFFF000000000000000000000000DB
:1059D00000E10000000000000000000000000000E6
:1059E000010000001027000003000000000000007C
:1059F00000C20100000000000000000000000000E4
:105A000000C20100000000000000000000000000D3
:105A100000C20100000000000000000000000000C3
:105A200080250000000000000000000000000000D1
:105A30001400380053006200620053003800140064
:105A4000ECFFC8FFADFF9EFF9EFFADFFC8FFECFF60
:105A50006200530038001400ECFFC8FFADFF9EFF4A
:105A60009EFFADFFC8FFECFF14003800530062003A
:105A7000FB21F93FFB2109407CD91240FB21194051
:105A80007A6A1F407CD92240BBFD2540FB2129407A
:105A90003A462C407A6A2F405C4731407CD93240EC
:105AA0009C6B3440BBFD3540DB8F3740FB213940D8
:105AB0001BB43A403A463C405AD83D407A6A3F408F
:105AC0004C7E40405C4741406C1042407CD9424093
:105AD0008CA243409C6B4440AC344540BBFD4540E8
